{
  "contractName": "ProductTracker",
  "abi": [
    {
      "inputs": [],
      "stateMutability": "nonpayable",
      "type": "constructor"
    },
    {
      "anonymous": false,
      "inputs": [
        {
          "indexed": true,
          "internalType": "bytes32",
          "name": "productIdHash",
          "type": "bytes32"
        },
        {
          "indexed": false,
          "internalType": "string",
          "name": "productId",
          "type": "string"
        },
        {
          "indexed": false,
          "internalType": "string",
          "name": "newOwnerId",
          "type": "string"
        }
      ],
      "name": "OwnershipTransferred",
      "type": "event"
    },
    {
      "anonymous": false,
      "inputs": [
        {
          "indexed": true,
          "internalType": "bytes32",
          "name": "productIdHash",
          "type": "bytes32"
        },
        {
          "indexed": false,
          "internalType": "string",
          "name": "productId",
          "type": "string"
        },
        {
          "indexed": true,
          "internalType": "address",
          "name": "manufacturer",
          "type": "address"
        }
      ],
      "name": "ProductAdded",
      "type": "event"
    },
    {
      "anonymous": false,
      "inputs": [
        {
          "indexed": true,
          "internalType": "bytes32",
          "name": "productIdHash",
          "type": "bytes32"
        },
        {
          "indexed": false,
          "internalType": "string",
          "name": "productId",
          "type": "string"
        },
        {
          "indexed": false,
          "internalType": "string",
          "name": "stageName",
          "type": "string"
        },
        {
          "indexed": false,
          "internalType": "uint256",
          "name": "timestamp",
          "type": "uint256"
        }
      ],
      "name": "StageAdded",
      "type": "event"
    },
    {
      "inputs": [
        {
          "internalType": "string",
          "name": "_name",
          "type": "string"
        },
        {
          "internalType": "string",
          "name": "_origin",
          "type": "string"
        },
        {
          "internalType": "string",
          "name": "_manufacturer",
          "type": "string"
        },
        {
          "internalType": "uint256",
          "name": "_productionDate",
          "type": "uint256"
        },
        {
          "internalType": "string",
          "name": "_batchNumber",
          "type": "string"
        },
        {
          "internalType": "string",
          "name": "_ownerId",
          "type": "string"
        }
      ],
      "name": "addProduct",
      "outputs": [
        {
          "internalType": "string",
          "name": "",
          "type": "string"
        }
      ],
      "stateMutability": "nonpayable",
      "type": "function"
    },
    {
      "inputs": [
        {
          "internalType": "string",
          "name": "_productId",
          "type": "string"
        },
        {
          "internalType": "string",
          "name": "_stageName",
          "type": "string"
        },
        {
          "internalType": "string",
          "name": "_description",
          "type": "string"
        },
        {
          "internalType": "string",
          "name": "_location",
          "type": "string"
        },
        {
          "internalType": "uint256",
          "name": "_timestamp",
          "type": "uint256"
        },
        {
          "internalType": "string",
          "name": "_handler",
          "type": "string"
        }
      ],
      "name": "addProductStage",
      "outputs": [],
      "stateMutability": "nonpayable",
      "type": "function"
    },
    {
      "inputs": [
        {
          "internalType": "string",
          "name": "_productId",
          "type": "string"
        },
        {
          "internalType": "string",
          "name": "_name",
          "type": "string"
        },
        {
          "internalType": "string",
          "name": "_origin",
          "type": "string"
        },
        {
          "internalType": "string",
          "name": "_manufacturer",
          "type": "string"
        }
      ],
      "name": "updateProduct",
      "outputs": [],
      "stateMutability": "nonpayable",
      "type": "function"
    },
    {
      "inputs": [
        {
          "internalType": "string",
          "name": "_productId",
          "type": "string"
        },
        {
          "internalType": "string",
          "name": "_newOwnerId",
          "type": "string"
        }
      ],
      "name": "transferOwnership",
      "outputs": [],
      "stateMutability": "nonpayable",
      "type": "function"
    },
    {
      "inputs": [
        {
          "internalType": "string",
          "name": "_productId",
          "type": "string"
        }
      ],
      "name": "getProduct",
      "outputs": [
        {
          "components": [
            {
              "internalType": "string",
              "name": "name",
              "type": "string"
            },
            {
              "internalType": "string",
              "name": "origin",
              "type": "string"
            },
            {
              "internalType": "string",
              "name": "manufacturer",
              "type": "string"
            },
            {
              "internalType": "uint256",
              "name": "productionDate",
              "type": "uint256"
            },
            {
              "internalType": "string",
              "name": "batchNumber",
              "type": "string"
            },
            {
              "internalType": "string",
              "name": "ownerId",
              "type": "string"
            },
            {
              "internalType": "bool",
              "name": "exists",
              "type": "bool"
            }
          ],
          "internalType": "struct ProductTracker.Product",
          "name": "",
          "type": "tuple"
        }
      ],
      "stateMutability": "view",
      "type": "function"
    },
    {
      "inputs": [
        {
          "internalType": "string",
          "name": "_productId",
          "type": "string"
        }
      ],
      "name": "productExists",
      "outputs": [
        {
          "internalType": "bool",
          "name": "",
          "type": "bool"
        }
      ],
      "stateMutability": "view",
      "type": "function"
    },
    {
      "inputs": [
        {
          "internalType": "string",
          "name": "_productId",
          "type": "string"
        }
      ],
      "name": "getProductHistoryCount",
      "outputs": [
        {
          "internalType": "uint256",
          "name": "",
          "type": "uint256"
        }
      ],
      "stateMutability": "view",
      "type": "function"
    },
    {
      "inputs": [
        {
          "internalType": "string",
          "name": "_productId",
          "type": "string"
        },
        {
          "internalType": "uint256",
          "name": "index",
          "type": "uint256"
        }
      ],
      "name": "getProductHistoryItem",
      "outputs": [
        {
          "components": [
            {
              "internalType": "string",
              "name": "stageName",
              "type": "string"
            },
            {
              "internalType": "string",
              "name": "description",
              "type": "string"
            },
            {
              "internalType": "string",
              "name": "location",
              "type": "string"
            },
            {
              "internalType": "uint256",
              "name": "timestamp",
              "type": "uint256"
            },
            {
              "internalType": "string",
              "name": "handler",
              "type": "string"
            }
          ],
          "internalType": "struct ProductTracker.Stage",
          "name": "",
          "type": "tuple"
        }
      ],
      "stateMutability": "view",
      "type": "function"
    }
  ],
  "bytecode": "0x608060405234801561001057600080fd5b506118e6806100206000396000f3fe608060405234801561001057600080fd5b50600436106100885760003560e01c806368111cce1161005b57806368111cce1461010c57806383d3aa2e1461012c5780638addc0511461013f578063937644871461016257600080fd5b80631e1ad33c1461008d578063268ca07e146100b65780633036451e146100cb578063416eb9f4146100eb575b600080fd5b6100a061009b36600461110d565b610175565b6040516100ad9190611237565b60405180910390f35b6100c96100c4366004611251565b61044c565b005b6100de6100d93660046112b5565b610527565b6040516100ad91906112fa565b6100fe6100f9366004611382565b6108a5565b6040519081526020016100ad565b61011f61011a366004611382565b6108cd565b6040516100ad91906113bf565b6100c961013a366004611475565b610c75565b61015261014d366004611382565b610de6565b60405190151581526020016100ad565b6100c9610170366004611535565b610e13565b60606000610184888787610ea8565b905060008160405161019691906115e2565b9081526040519081900360200190206006015460ff16156101f45760405162461bcd60e51b815260206004820152601360248201527253616e207068616d20646120746f6e2074616960681b60448201526064015b60405180910390fd5b6040518060e001604052808981526020018881526020018781526020018681526020018581526020018481526020016001151581525060008260405161023a91906115e2565b908152604051908190036020019020815181906102579082611683565b506020820151600182019061026c9082611683565b50604082015160028201906102819082611683565b5060608201516003820155608082015160048201906102a09082611683565b5060a082015160058201906102b59082611683565b5060c091820151600691909101805460ff19169115159190911790556040805160e081018252600a60a0820190815269383937b23ab1ba34b7b760b11b9382019390935291825280518082018252601581527453616e207068616d207675612064756f632074616f60581b602080830191909152830152818101899052426060830152608082018590525160019061034e9084906115e2565b9081526040516020918190038201902080546001810182556000918252919020825183926005029091019081906103859082611683565b506020820151600182019061039a9082611683565b50604082015160028201906103af9082611683565b5060608201516003820155608082015160048201906103ce9082611683565b5050506000826040516020016103e491906115e2565b604051602081830303815290604052805190602001209050336001600160a01b0316817f844e3d1e286b7440f271908de502d189feddba7bf1b67397e565c2a28f9dcbb1856040516104369190611237565b60405180910390a3509098975050505050505050565b60008260405161045c91906115e2565b9081526040519081900360200190206006015460ff1661048e5760405162461bcd60e51b81526004016101eb90611743565b8060008360405161049f91906115e2565b908152602001604051809103902060050190816104bc9190611683565b506000826040516020016104d091906115e2565b604051602081830303815290604052805190602001209050807f25e9515656530c3e05d65a19e2df1cceead753ccbab39e34d0986803185e990c848460405161051a929190611773565b60405180910390a2505050565b6105596040518060a0016040528060608152602001606081526020016060815260200160008152602001606081525090565b60008360405161056991906115e2565b9081526040519081900360200190206006015460ff1661059b5760405162461bcd60e51b81526004016101eb90611743565b6001836040516105ab91906115e2565b9081526040519081900360200190205482106106025760405162461bcd60e51b8152602060048201526016602482015275496e6465782076756f7420717561206c69636820737560501b60448201526064016101eb565b60018360405161061291906115e2565b9081526020016040518091039020828154811061063157610631611798565b90600052602060002090600502016040518060a001604052908160008201805461065a906115fe565b80601f0160208091040260200160405190810160405280929190818152602001828054610686906115fe565b80156106d35780601f106106a8576101008083540402835291602001916106d3565b820191906000526020600020905b8154815290600101906020018083116106b657829003601f168201915b505050505081526020016001820180546106ec906115fe565b80601f0160208091040260200160405190810160405280929190818152602001828054610718906115fe565b80156107655780601f1061073a57610100808354040283529160200191610765565b820191906000526020600020905b81548152906001019060200180831161074857829003601f168201915b5050505050815260200160028201805461077e906115fe565b80601f01602080910402602001604051908101604052809291908181526020018280546107aa906115fe565b80156107f75780601f106107cc576101008083540402835291602001916107f7565b820191906000526020600020905b8154815290600101906020018083116107da57829003601f168201915b505050505081526020016003820154815260200160048201805461081a906115fe565b80601f0160208091040260200160405190810160405280929190818152602001828054610846906115fe565b80156108935780601f1061086857610100808354040283529160200191610893565b820191906000526020600020905b81548152906001019060200180831161087657829003601f168201915b50505050508152505090505b92915050565b60006001826040516108b791906115e2565b9081526040519081900360200190205492915050565b61090f6040518060e001604052806060815260200160608152602001606081526020016000815260200160608152602001606081526020016000151581525090565b60008260405161091f91906115e2565b9081526040519081900360200190206006015460ff166109515760405162461bcd60e51b81526004016101eb90611743565b60008260405161096191906115e2565b90815260200160405180910390206040518060e001604052908160008201805461098a906115fe565b80601f01602080910402602001604051908101604052809291908181526020018280546109b6906115fe565b8015610a035780601f106109d857610100808354040283529160200191610a03565b820191906000526020600020905b8154815290600101906020018083116109e657829003601f168201915b50505050508152602001600182018054610a1c906115fe565b80601f0160208091040260200160405190810160405280929190818152602001828054610a48906115fe565b8015610a955780601f10610a6a57610100808354040283529160200191610a95565b820191906000526020600020905b815481529060010190602001808311610a7857829003601f168201915b50505050508152602001600282018054610aae906115fe565b80601f0160208091040260200160405190810160405280929190818152602001828054610ada906115fe565b8015610b275780601f10610afc57610100808354040283529160200191610b27565b820191906000526020600020905b815481529060010190602001808311610b0a57829003601f168201915b5050505050815260200160038201548152602001600482018054610b4a906115fe565b80601f0160208091040260200160405190810160405280929190818152602001828054610b76906115fe565b8015610bc35780601f10610b9857610100808354040283529160200191610bc3565b820191906000526020600020905b815481529060010190602001808311610ba657829003601f168201915b50505050508152602001600582018054610bdc906115fe565b80601f0160208091040260200160405190810160405280929190818152602001828054610c08906115fe565b8015610c555780601f10610c2a57610100808354040283529160200191610c55565b820191906000526020600020905b815481529060010190602001808311610c3857829003601f168201915b50505091835250506006919091015460ff16151560209091015292915050565b600086604051610c8591906115e2565b9081526040519081900360200190206006015460ff16610cb75760405162461bcd60e51b81526004016101eb90611743565b60006040518060a00160405280878152602001868152602001858152602001848152602001838152509050600187604051610cf291906115e2565b908152604051602091819003820190208054600181018255600091825291902082518392600502909101908190610d299082611683565b5060208201516001820190610d3e9082611683565b5060408201516002820190610d539082611683565b506060820151600382015560808201516004820190610d729082611683565b505050600087604051602001610d8891906115e2565b604051602081830303815290604052805190602001209050807f94d5da2968a357c83a9881a7f6518d5abc7c4519b4cc33b12aaecd83d9396d69898987604051610dd4939291906117ae565b60405180910390a25050505050505050565b60008082604051610df791906115e2565b9081526040519081900360200190206006015460ff1692915050565b600084604051610e2391906115e2565b9081526040519081900360200190206006015460ff16610e555760405162461bcd60e51b81526004016101eb90611743565b60008085604051610e6691906115e2565b908152604051908190036020019020905080610e828582611683565b5060018101610e918482611683565b5060028101610ea08382611683565b505050505050565b60606000848484604051602001610ec1939291906117e4565b60408051808303601f190181528282528051602090910120601080845283830190925292506000919060208201818036833701905050905060005b60088110156110605760096010848360208110610f1b57610f1b611798565b610f279291901a611845565b11610f33576000610f36565b60275b60ff166010848360208110610f4d57610f4d611798565b610f599291901a611845565b610f64906030611859565b610f6e9190611859565b60f81b82610f7d83600261186c565b81518110610f8d57610f8d611798565b60200101906001600160f81b031916908160001a90535060096010848360208110610fba57610fba611798565b610fc69291901a611883565b11610fd2576000610fd5565b60275b60ff166010848360208110610fec57610fec611798565b610ff89291901a611883565b611003906030611859565b61100d9190611859565b60f81b8261101c83600261186c565b611027906001611859565b8151811061103757611037611798565b60200101906001600160f81b031916908160001a9053508061105881611897565b915050610efc565b5095945050505050565b634e487b7160e01b600052604160045260246000fd5b600082601f83011261109157600080fd5b813567ffffffffffffffff808211156110ac576110ac61106a565b604051601f8301601f19908116603f011681019082821181831017156110d4576110d461106a565b816040528381528660208588010111156110ed57600080fd5b836020870160208301376000602085830101528094505050505092915050565b60008060008060008060c0878903121561112657600080fd5b863567ffffffffffffffff8082111561113e57600080fd5b61114a8a838b01611080565b9750602089013591508082111561116057600080fd5b61116c8a838b01611080565b9650604089013591508082111561118257600080fd5b61118e8a838b01611080565b95506060890135945060808901359150808211156111ab57600080fd5b6111b78a838b01611080565b935060a08901359150808211156111cd57600080fd5b506111da89828a01611080565b9150509295509295509295565b60005b838110156112025781810151838201526020016111ea565b50506000910152565b600081518084526112238160208601602086016111e7565b601f01601f19169290920160200192915050565b60208152600061124a602083018461120b565b9392505050565b6000806040838503121561126457600080fd5b823567ffffffffffffffff8082111561127c57600080fd5b61128886838701611080565b9350602085013591508082111561129e57600080fd5b506112ab85828601611080565b9150509250929050565b600080604083850312156112c857600080fd5b823567ffffffffffffffff8111156112df57600080fd5b6112eb85828601611080565b95602094909401359450505050565b602081526000825160a0602084015261131660c084018261120b565b90506020840151601f1980858403016040860152611334838361120b565b92506040860151915080858403016060860152611351838361120b565b92506060860151608086015260808601519150808584030160a086015250611379828261120b565b95945050505050565b60006020828403121561139457600080fd5b813567ffffffffffffffff8111156113ab57600080fd5b6113b784828501611080565b949350505050565b602081526000825160e060208401526113dc61010084018261120b565b90506020840151601f19808584030160408601526113fa838361120b565b92506040860151915080858403016060860152611417838361120b565b92506060860151608086015260808601519150808584030160a086015261143e838361120b565b925060a08601519150808584030160c08601525061145c828261120b565b91505060c0840151151560e08401528091505092915050565b60008060008060008060c0878903121561148e57600080fd5b863567ffffffffffffffff808211156114a657600080fd5b6114b28a838b01611080565b975060208901359150808211156114c857600080fd5b6114d48a838b01611080565b965060408901359150808211156114ea57600080fd5b6114f68a838b01611080565b9550606089013591508082111561150c57600080fd5b6115188a838b01611080565b94506080890135935060a08901359150808211156111cd57600080fd5b6000806000806080858703121561154b57600080fd5b843567ffffffffffffffff8082111561156357600080fd5b61156f88838901611080565b9550602087013591508082111561158557600080fd5b61159188838901611080565b945060408701359150808211156115a757600080fd5b6115b388838901611080565b935060608701359150808211156115c957600080fd5b506115d687828801611080565b91505092959194509250565b600082516115f48184602087016111e7565b9190910192915050565b600181811c9082168061161257607f821691505b60208210810361163257634e487b7160e01b600052602260045260246000fd5b50919050565b601f82111561167e57600081815260208120601f850160051c8101602086101561165f5750805b601f850160051c820191505b81811015610ea05782815560010161166b565b505050565b815167ffffffffffffffff81111561169d5761169d61106a565b6116b1816116ab84546115fe565b84611638565b602080601f8311600181146116e657600084156116ce5750858301515b600019600386901b1c1916600185901b178555610ea0565b600085815260208120601f198616915b82811015611715578886015182559484019460019091019084016116f6565b50858210156117335787850151600019600388901b60f8161c191681555b5050505050600190811b01905550565b60208082526016908201527553616e207068616d206b686f6e6720746f6e2074616960501b604082015260600190565b604081526000611786604083018561120b565b8281036020840152611379818561120b565b634e487b7160e01b600052603260045260246000fd5b6060815260006117c1606083018661120b565b82810360208401526117d3818661120b565b915050826040830152949350505050565b600084516117f68184602089016111e7565b84519083019061180a8183602089016111e7565b01928352505060200192915050565b634e487b7160e01b600052601260045260246000fd5b634e487b7160e01b600052601160045260246000fd5b60008261185457611854611819565b500490565b8082018082111561089f5761089f61182f565b808202811582820484141761089f5761089f61182f565b60008261189257611892611819565b500690565b6000600182016118a9576118a961182f565b506001019056fea26469706673582212206198447a0775528e313a30aa5c8f1e61ed773f1b14e0e7f566f343d75af348ec64736f6c63430008110033",
  "immutableReferences": {},
  "source": "// SPDX-License-Identifier: MIT\r\npragma solidity 0.8.17;\r\n\r\ncontract ProductTracker {\r\n    // Cu trc d liu sn phm\r\n    struct Product {\r\n        string name;\r\n        string origin;\r\n        string manufacturer;\r\n        uint256 productionDate;\r\n        string batchNumber;\r\n        string ownerId;\r\n        bool exists;\r\n    }\r\n    \r\n    // Cu trc d liu giai on\r\n    struct Stage {\r\n        string stageName;\r\n        string description;\r\n        string location;\r\n        uint256 timestamp;\r\n        string handler;\r\n    }\r\n    \r\n    // Lu tr sn phm theo ID\r\n    mapping(string => Product) private products;\r\n    \r\n    // Lu tr lch s sn phm\r\n    mapping(string => Stage[]) private productHistory;\r\n    \r\n    // Events -  sa string indexed thnh bytes32 indexed\r\n    event ProductAdded(bytes32 indexed productIdHash, string productId, address indexed manufacturer);\r\n    event StageAdded(bytes32 indexed productIdHash, string productId, string stageName, uint256 timestamp);\r\n    event OwnershipTransferred(bytes32 indexed productIdHash, string productId, string newOwnerId);\r\n    \r\n    constructor() {}\r\n    \r\n    // Thm sn phm mi\r\n    function addProduct(\r\n        string memory _name,\r\n        string memory _origin,\r\n        string memory _manufacturer,\r\n        uint256 _productionDate,\r\n        string memory _batchNumber,\r\n        string memory _ownerId\r\n    ) public returns (string memory) {\r\n        // To ID cho sn phm\r\n        string memory productId = generateProductId(_name, _manufacturer, _productionDate);\r\n        \r\n        // Kim tra sn phm  tn ti cha\r\n        require(!products[productId].exists, \"San pham da ton tai\");\r\n        \r\n        // Lu thng tin sn phm\r\n        products[productId] = Product({\r\n            name: _name,\r\n            origin: _origin,\r\n            manufacturer: _manufacturer,\r\n            productionDate: _productionDate,\r\n            batchNumber: _batchNumber,\r\n            ownerId: _ownerId,\r\n            exists: true\r\n        });\r\n        \r\n        // Thm giai on u tin\r\n        Stage memory initialStage = Stage({\r\n            stageName: \"production\",\r\n            description: \"San pham vua duoc tao\",\r\n            location: _origin,\r\n            timestamp: block.timestamp,\r\n            handler: _ownerId\r\n        });\r\n        \r\n        productHistory[productId].push(initialStage);\r\n        \r\n        // Pht s kin vi hash ca productId\r\n        bytes32 productIdHash = keccak256(abi.encodePacked(productId));\r\n        emit ProductAdded(productIdHash, productId, msg.sender);\r\n        \r\n        return productId;\r\n    }\r\n    \r\n    // Thm giai on mi cho sn phm\r\n    function addProductStage(\r\n        string memory _productId,\r\n        string memory _stageName,\r\n        string memory _description,\r\n        string memory _location,\r\n        uint256 _timestamp,\r\n        string memory _handler\r\n    ) public {\r\n        // Kim tra sn phm tn ti\r\n        require(products[_productId].exists, \"San pham khong ton tai\");\r\n        \r\n        // To v lu giai on mi\r\n        Stage memory newStage = Stage({\r\n            stageName: _stageName,\r\n            description: _description,\r\n            location: _location,\r\n            timestamp: _timestamp,\r\n            handler: _handler\r\n        });\r\n        \r\n        productHistory[_productId].push(newStage);\r\n        \r\n        // Pht s kin\r\n        bytes32 productIdHash = keccak256(abi.encodePacked(_productId));\r\n        emit StageAdded(productIdHash, _productId, _stageName, _timestamp);\r\n    }\r\n    \r\n    // Cp nht thng tin sn phm\r\n    function updateProduct(\r\n        string memory _productId,\r\n        string memory _name,\r\n        string memory _origin,\r\n        string memory _manufacturer\r\n    ) public {\r\n        // Kim tra sn phm tn ti\r\n        require(products[_productId].exists, \"San pham khong ton tai\");\r\n        \r\n        // Cp nht thng tin\r\n        Product storage product = products[_productId];\r\n        product.name = _name;\r\n        product.origin = _origin;\r\n        product.manufacturer = _manufacturer;\r\n    }\r\n    \r\n    // Chuyn quyn s hu sn phm -  sa bin khng s dng\r\n    function transferOwnership(\r\n        string memory _productId,\r\n        string memory _newOwnerId\r\n    ) public {\r\n        // Kim tra sn phm tn ti\r\n        require(products[_productId].exists, \"San pham khong ton tai\");\r\n        \r\n        // Cp nht ch s hu mi\r\n        products[_productId].ownerId = _newOwnerId;\r\n        \r\n        // Pht s kin\r\n        bytes32 productIdHash = keccak256(abi.encodePacked(_productId));\r\n        emit OwnershipTransferred(productIdHash, _productId, _newOwnerId);\r\n    }\r\n    \r\n    // Ly thng tin sn phm\r\n    function getProduct(string memory _productId) public view returns (Product memory) {\r\n        require(products[_productId].exists, \"San pham khong ton tai\");\r\n        return products[_productId];\r\n    }\r\n    \r\n    // Kim tra sn phm c tn ti khng\r\n    function productExists(string memory _productId) public view returns (bool) {\r\n        return products[_productId].exists;\r\n    }\r\n    \r\n    // Ly s lng s kin trong lch s sn phm\r\n    function getProductHistoryCount(string memory _productId) public view returns (uint256) {\r\n        return productHistory[_productId].length;\r\n    }\r\n    \r\n    // Ly thng tin giai on theo index\r\n    function getProductHistoryItem(string memory _productId, uint256 index) public view returns (Stage memory) {\r\n        require(products[_productId].exists, \"San pham khong ton tai\");\r\n        require(index < productHistory[_productId].length, \"Index vuot qua lich su\");\r\n        return productHistory[_productId][index];\r\n    }\r\n    \r\n    // To ID cho sn phm - ci tin vi keccak256\r\n    function generateProductId(\r\n        string memory _name,\r\n        string memory _manufacturer,\r\n        uint256 _timestamp\r\n    ) internal pure returns (string memory) {\r\n        // S dng keccak256  to mt ID ngn gn v duy nht\r\n        bytes32 hash = keccak256(abi.encodePacked(_name, _manufacturer, _timestamp));\r\n        \r\n        // Chuyn hash thnh chui hex c  di ph hp (16 k t)\r\n        bytes memory result = new bytes(16);\r\n        for(uint i = 0; i < 8; i++) {\r\n            result[i*2] = bytes1(uint8(uint(uint8(hash[i])) / 16 + 48 + (uint(uint8(hash[i])) / 16 > 9 ? 39 : 0)));\r\n            result[i*2+1] = bytes1(uint8(uint(uint8(hash[i])) % 16 + 48 + (uint(uint8(hash[i])) % 16 > 9 ? 39 : 0)));\r\n        }\r\n        return string(result);\r\n    }\r\n}",
  "sourcePath": "D:\\Blockchain\\contracts\\ProductTracker.sol",
  "compiler": {
    "name": "solc",
    "version": "0.8.17+commit.8df45f5f.Emscripten.clang"
  },
  "schemaVersion": "3.4.16",
  "updatedAt": "2025-05-31T06:42:03.913Z",
  "devdoc": {
    "kind": "dev",
    "methods": {},
    "version": 1
  },
  "userdoc": {
    "kind": "user",
    "methods": {},
    "version": 1
  }
}